{
  "contractName": "SolnSquareVerifier",
  "abi": [
    {
      "constant": true,
      "inputs": [
        {
          "name": "interfaceId",
          "type": "bytes4"
        }
      ],
      "name": "supportsInterface",
      "outputs": [
        {
          "name": "",
          "type": "bool"
        }
      ],
      "payable": false,
      "stateMutability": "view",
      "type": "function",
      "signature": "0x01ffc9a7"
    },
    {
      "constant": true,
      "inputs": [],
      "name": "name",
      "outputs": [
        {
          "name": "",
          "type": "string"
        }
      ],
      "payable": false,
      "stateMutability": "view",
      "type": "function",
      "signature": "0x06fdde03"
    },
    {
      "constant": true,
      "inputs": [
        {
          "name": "tokenId",
          "type": "uint256"
        }
      ],
      "name": "getApproved",
      "outputs": [
        {
          "name": "",
          "type": "address"
        }
      ],
      "payable": false,
      "stateMutability": "view",
      "type": "function",
      "signature": "0x081812fc"
    },
    {
      "constant": false,
      "inputs": [
        {
          "name": "to",
          "type": "address"
        },
        {
          "name": "tokenId",
          "type": "uint256"
        }
      ],
      "name": "approve",
      "outputs": [],
      "payable": false,
      "stateMutability": "nonpayable",
      "type": "function",
      "signature": "0x095ea7b3"
    },
    {
      "constant": true,
      "inputs": [],
      "name": "totalSupply",
      "outputs": [
        {
          "name": "",
          "type": "uint256"
        }
      ],
      "payable": false,
      "stateMutability": "view",
      "type": "function",
      "signature": "0x18160ddd"
    },
    {
      "constant": false,
      "inputs": [
        {
          "name": "from",
          "type": "address"
        },
        {
          "name": "to",
          "type": "address"
        },
        {
          "name": "tokenId",
          "type": "uint256"
        }
      ],
      "name": "transferFrom",
      "outputs": [],
      "payable": false,
      "stateMutability": "nonpayable",
      "type": "function",
      "signature": "0x23b872dd"
    },
    {
      "constant": false,
      "inputs": [
        {
          "name": "_myid",
          "type": "bytes32"
        },
        {
          "name": "_result",
          "type": "string"
        }
      ],
      "name": "__callback",
      "outputs": [],
      "payable": false,
      "stateMutability": "nonpayable",
      "type": "function",
      "signature": "0x27dc297e"
    },
    {
      "constant": true,
      "inputs": [
        {
          "name": "owner",
          "type": "address"
        },
        {
          "name": "index",
          "type": "uint256"
        }
      ],
      "name": "tokenOfOwnerByIndex",
      "outputs": [
        {
          "name": "",
          "type": "uint256"
        }
      ],
      "payable": false,
      "stateMutability": "view",
      "type": "function",
      "signature": "0x2f745c59"
    },
    {
      "constant": false,
      "inputs": [
        {
          "name": "_myid",
          "type": "bytes32"
        },
        {
          "name": "_result",
          "type": "string"
        },
        {
          "name": "_proof",
          "type": "bytes"
        }
      ],
      "name": "__callback",
      "outputs": [],
      "payable": false,
      "stateMutability": "nonpayable",
      "type": "function",
      "signature": "0x38bbfa50"
    },
    {
      "constant": false,
      "inputs": [],
      "name": "unpause",
      "outputs": [],
      "payable": false,
      "stateMutability": "nonpayable",
      "type": "function",
      "signature": "0x3f4ba83a"
    },
    {
      "constant": false,
      "inputs": [
        {
          "name": "to",
          "type": "address"
        },
        {
          "name": "tokenId",
          "type": "uint256"
        }
      ],
      "name": "mint",
      "outputs": [
        {
          "name": "",
          "type": "bool"
        }
      ],
      "payable": false,
      "stateMutability": "nonpayable",
      "type": "function",
      "signature": "0x40c10f19"
    },
    {
      "constant": false,
      "inputs": [
        {
          "name": "from",
          "type": "address"
        },
        {
          "name": "to",
          "type": "address"
        },
        {
          "name": "tokenId",
          "type": "uint256"
        }
      ],
      "name": "safeTransferFrom",
      "outputs": [],
      "payable": false,
      "stateMutability": "nonpayable",
      "type": "function",
      "signature": "0x42842e0e"
    },
    {
      "constant": true,
      "inputs": [
        {
          "name": "index",
          "type": "uint256"
        }
      ],
      "name": "tokenByIndex",
      "outputs": [
        {
          "name": "",
          "type": "uint256"
        }
      ],
      "payable": false,
      "stateMutability": "view",
      "type": "function",
      "signature": "0x4f6ccce7"
    },
    {
      "constant": true,
      "inputs": [
        {
          "name": "tokenId",
          "type": "uint256"
        }
      ],
      "name": "ownerOf",
      "outputs": [
        {
          "name": "",
          "type": "address"
        }
      ],
      "payable": false,
      "stateMutability": "view",
      "type": "function",
      "signature": "0x6352211e"
    },
    {
      "constant": true,
      "inputs": [
        {
          "name": "owner",
          "type": "address"
        }
      ],
      "name": "balanceOf",
      "outputs": [
        {
          "name": "",
          "type": "uint256"
        }
      ],
      "payable": false,
      "stateMutability": "view",
      "type": "function",
      "signature": "0x70a08231"
    },
    {
      "constant": false,
      "inputs": [],
      "name": "pause",
      "outputs": [],
      "payable": false,
      "stateMutability": "nonpayable",
      "type": "function",
      "signature": "0x8456cb59"
    },
    {
      "constant": true,
      "inputs": [],
      "name": "owner",
      "outputs": [
        {
          "name": "",
          "type": "address"
        }
      ],
      "payable": false,
      "stateMutability": "view",
      "type": "function",
      "signature": "0x8da5cb5b"
    },
    {
      "constant": true,
      "inputs": [],
      "name": "symbol",
      "outputs": [
        {
          "name": "",
          "type": "string"
        }
      ],
      "payable": false,
      "stateMutability": "view",
      "type": "function",
      "signature": "0x95d89b41"
    },
    {
      "constant": false,
      "inputs": [
        {
          "name": "to",
          "type": "address"
        },
        {
          "name": "approved",
          "type": "bool"
        }
      ],
      "name": "setApprovalForAll",
      "outputs": [],
      "payable": false,
      "stateMutability": "nonpayable",
      "type": "function",
      "signature": "0xa22cb465"
    },
    {
      "constant": false,
      "inputs": [
        {
          "name": "from",
          "type": "address"
        },
        {
          "name": "to",
          "type": "address"
        },
        {
          "name": "tokenId",
          "type": "uint256"
        },
        {
          "name": "_data",
          "type": "bytes"
        }
      ],
      "name": "safeTransferFrom",
      "outputs": [],
      "payable": false,
      "stateMutability": "nonpayable",
      "type": "function",
      "signature": "0xb88d4fde"
    },
    {
      "constant": true,
      "inputs": [
        {
          "name": "tokenId",
          "type": "uint256"
        }
      ],
      "name": "tokenURI",
      "outputs": [
        {
          "name": "",
          "type": "string"
        }
      ],
      "payable": false,
      "stateMutability": "view",
      "type": "function",
      "signature": "0xc87b56dd"
    },
    {
      "constant": true,
      "inputs": [],
      "name": "baseTokenURI",
      "outputs": [
        {
          "name": "",
          "type": "string"
        }
      ],
      "payable": false,
      "stateMutability": "view",
      "type": "function",
      "signature": "0xd547cfb7"
    },
    {
      "constant": true,
      "inputs": [
        {
          "name": "owner",
          "type": "address"
        },
        {
          "name": "operator",
          "type": "address"
        }
      ],
      "name": "isApprovedForAll",
      "outputs": [
        {
          "name": "",
          "type": "bool"
        }
      ],
      "payable": false,
      "stateMutability": "view",
      "type": "function",
      "signature": "0xe985e9c5"
    },
    {
      "constant": false,
      "inputs": [
        {
          "name": "newOwner",
          "type": "address"
        }
      ],
      "name": "transferOwnership",
      "outputs": [],
      "payable": false,
      "stateMutability": "nonpayable",
      "type": "function",
      "signature": "0xf2fde38b"
    },
    {
      "inputs": [
        {
          "name": "verifierAddress",
          "type": "address"
        }
      ],
      "payable": false,
      "stateMutability": "nonpayable",
      "type": "constructor",
      "signature": "constructor"
    },
    {
      "anonymous": false,
      "inputs": [
        {
          "indexed": false,
          "name": "index",
          "type": "uint256"
        },
        {
          "indexed": false,
          "name": "ad",
          "type": "address"
        }
      ],
      "name": "Solve",
      "type": "event",
      "signature": "0x3df6b522eef67da754a6005553d519aa545c4394f4f8a0d60cb4312a14133e52"
    },
    {
      "anonymous": false,
      "inputs": [
        {
          "indexed": true,
          "name": "from",
          "type": "address"
        },
        {
          "indexed": true,
          "name": "to",
          "type": "address"
        },
        {
          "indexed": true,
          "name": "tokenId",
          "type": "uint256"
        }
      ],
      "name": "Transfer",
      "type": "event",
      "signature": "0xddf252ad1be2c89b69c2b068fc378daa952ba7f163c4a11628f55a4df523b3ef"
    },
    {
      "anonymous": false,
      "inputs": [
        {
          "indexed": true,
          "name": "owner",
          "type": "address"
        },
        {
          "indexed": true,
          "name": "approved",
          "type": "address"
        },
        {
          "indexed": true,
          "name": "tokenId",
          "type": "uint256"
        }
      ],
      "name": "Approval",
      "type": "event",
      "signature": "0x8c5be1e5ebec7d5bd14f71427d1e84f3dd0314c0f7b2291e5b200ac8c7c3b925"
    },
    {
      "anonymous": false,
      "inputs": [
        {
          "indexed": true,
          "name": "owner",
          "type": "address"
        },
        {
          "indexed": true,
          "name": "operator",
          "type": "address"
        },
        {
          "indexed": false,
          "name": "approved",
          "type": "bool"
        }
      ],
      "name": "ApprovalForAll",
      "type": "event",
      "signature": "0x17307eab39ab6107e8899845ad3d59bd9653f200f220920489ca2b5937696c31"
    },
    {
      "anonymous": false,
      "inputs": [
        {
          "indexed": false,
          "name": "account",
          "type": "address"
        }
      ],
      "name": "Paused",
      "type": "event",
      "signature": "0x62e78cea01bee320cd4e420270b5ea74000d11b0c9f74754ebdbfc544b05a258"
    },
    {
      "anonymous": false,
      "inputs": [
        {
          "indexed": false,
          "name": "account",
          "type": "address"
        }
      ],
      "name": "Unpaused",
      "type": "event",
      "signature": "0x5db9ee0a495bf2e6ff9c91a7834c1ba4fdd244a5e8aa4e537bd38aeae4b073aa"
    },
    {
      "anonymous": false,
      "inputs": [
        {
          "indexed": true,
          "name": "oldOwner",
          "type": "address"
        },
        {
          "indexed": true,
          "name": "newOwner",
          "type": "address"
        }
      ],
      "name": "TransferOwnership",
      "type": "event",
      "signature": "0x5c486528ec3e3f0ea91181cff8116f02bfa350e03b8b6f12e00765adbb5af85c"
    },
    {
      "constant": false,
      "inputs": [
        {
          "name": "to",
          "type": "address"
        },
        {
          "name": "tokenId",
          "type": "uint256"
        },
        {
          "components": [
            {
              "components": [
                {
                  "name": "X",
                  "type": "uint256"
                },
                {
                  "name": "Y",
                  "type": "uint256"
                }
              ],
              "name": "a",
              "type": "tuple"
            },
            {
              "components": [
                {
                  "name": "X",
                  "type": "uint256[2]"
                },
                {
                  "name": "Y",
                  "type": "uint256[2]"
                }
              ],
              "name": "b",
              "type": "tuple"
            },
            {
              "components": [
                {
                  "name": "X",
                  "type": "uint256"
                },
                {
                  "name": "Y",
                  "type": "uint256"
                }
              ],
              "name": "c",
              "type": "tuple"
            }
          ],
          "name": "proof",
          "type": "tuple"
        },
        {
          "name": "input",
          "type": "uint256[1]"
        }
      ],
      "name": "mintNewNFT",
      "outputs": [],
      "payable": false,
      "stateMutability": "nonpayable",
      "type": "function",
      "signature": "0xdbf45a44"
    }
  ],
  "bytecode": "0x608060405260006014553480156200001657600080fd5b5060405160208062003db68339810180604052620000389190810190620004a2565b6040805190810160405280600d81526020017f4a6f6527732044726177696e67000000000000000000000000000000000000008152506040805190810160405280600381526020017f5043540000000000000000000000000000000000000000000000000000000000815250606060405190810160405280603f815260200162003d77603f9139336000806101000a81548173ffffffffffffffffffffffffffffffffffffffff021916908373ffffffffffffffffffffffffffffffffffffffff1602179055506000809054906101000a900473ffffffffffffffffffffffffffffffffffffffff1673ffffffffffffffffffffffffffffffffffffffff16600073ffffffffffffffffffffffffffffffffffffffff167f5c486528ec3e3f0ea91181cff8116f02bfa350e03b8b6f12e00765adbb5af85c60405160405180910390a360008060146101000a81548160ff021916908315150217905550620001d26301ffc9a77c0100000000000000000000000000000000000000000000000000000000026200031f640100000000026401000000009004565b6200020f6380ac58cd7c0100000000000000000000000000000000000000000000000000000000026200031f640100000000026401000000009004565b6200024c63780e9d637c0100000000000000000000000000000000000000000000000000000000026200031f640100000000026401000000009004565b82600f908051906020019062000264929190620003dd565b5081601090805190602001906200027d929190620003dd565b50806011908051906020019062000296929190620003dd565b50620002d4635b5e139f7c0100000000000000000000000000000000000000000000000000000000026200031f640100000000026401000000009004565b50505080601360006101000a81548173ffffffffffffffffffffffffffffffffffffffff021916908373ffffffffffffffffffffffffffffffffffffffff1602179055505062000502565b63ffffffff7c010000000000000000000000000000000000000000000000000000000002817bffffffffffffffffffffffffffffffffffffffffffffffffffffffff1916141515156200037157600080fd5b6001806000837bffffffffffffffffffffffffffffffffffffffffffffffffffffffff19167bffffffffffffffffffffffffffffffffffffffffffffffffffffffff1916815260200190815260200160002060006101000a81548160ff02191690831515021790555050565b828054600181600116156101000203166002900490600052602060002090601f016020900481019282601f106200042057805160ff191683800117855562000451565b8280016001018555821562000451579182015b828111156200045057825182559160200191906001019062000433565b5b50905062000460919062000464565b5090565b6200048991905b80821115620004855760008160009055506001016200046b565b5090565b90565b60006200049a8251620004ee565b905092915050565b600060208284031215620004b557600080fd5b6000620004c5848285016200048c565b91505092915050565b600073ffffffffffffffffffffffffffffffffffffffff82169050919050565b6000620004fb82620004ce565b9050919050565b61386580620005126000396000f3fe608060405234801561001057600080fd5b5060043610610190576000357c0100000000000000000000000000000000000000000000000000000000900480634f6ccce7116100fb578063a22cb465116100b4578063d547cfb71161008e578063d547cfb714610465578063dbf45a4414610483578063e985e9c51461049f578063f2fde38b146104cf57610190565b8063a22cb465146103fd578063b88d4fde14610419578063c87b56dd1461043557610190565b80634f6ccce7146103275780636352211e1461035757806370a08231146103875780638456cb59146103b75780638da5cb5b146103c157806395d89b41146103df57610190565b806327dc297e1161014d57806327dc297e146102695780632f745c591461028557806338bbfa50146102b55780633f4ba83a146102d157806340c10f19146102db57806342842e0e1461030b57610190565b806301ffc9a71461019557806306fdde03146101c5578063081812fc146101e3578063095ea7b31461021357806318160ddd1461022f57806323b872dd1461024d575b600080fd5b6101af60048036036101aa9190810190612e6e565b6104eb565b6040516101bc91906133cd565b60405180910390f35b6101cd610553565b6040516101da91906133e8565b60405180910390f35b6101fd60048036036101f89190810190612ec0565b6105f5565b60405161020a919061334b565b60405180910390f35b61022d60048036036102289190810190612cd1565b610632565b005b6102376107e3565b6040516102449190613595565b60405180910390f35b61026760048036036102629190810190612bcb565b6107f0565b005b610283600480360361027e9190810190612d9b565b61084b565b005b61029f600480360361029a9190810190612cd1565b61088e565b6040516102ac9190613595565b60405180910390f35b6102cf60048036036102ca9190810190612def565b610905565b005b6102d961090a565b005b6102f560048036036102f09190810190612cd1565b6109f6565b60405161030291906133cd565b60405180910390f35b61032560048036036103209190810190612bcb565b610aa6565b005b610341600480360361033c9190810190612ec0565b610ac7565b60405161034e9190613595565b60405180910390f35b610371600480360361036c9190810190612ec0565b610aff565b60405161037e919061334b565b60405180910390f35b6103a1600480360361039c9190810190612b66565b610b3c565b6040516103ae9190613595565b60405180910390f35b6103bf610b8c565b005b6103c9610c79565b6040516103d6919061334b565b60405180910390f35b6103e7610ca2565b6040516103f491906133e8565b60405180910390f35b61041760048036036104129190810190612c95565b610d44565b005b610433600480360361042e9190810190612c1a565b610e7c565b005b61044f600480360361044a9190810190612ec0565b610ea4565b60405161045c91906133e8565b60405180910390f35b61046d610f6d565b60405161047a91906133e8565b60405180910390f35b61049d60048036036104989190810190612d0d565b61100f565b005b6104b960048036036104b49190810190612b8f565b6112df565b6040516104c691906133cd565b60405180910390f35b6104e960048036036104e49190810190612b66565b611373565b005b600060016000837bffffffffffffffffffffffffffffffffffffffffffffffffffffffff19167bffffffffffffffffffffffffffffffffffffffffffffffffffffffff1916815260200190815260200160002060009054906101000a900460ff169050919050565b6060600f8054600181600116156101000203166002900480601f0160208091040260200160405190810160405280929190818152602001828054600181600116156101000203166002900480156105eb5780601f106105c0576101008083540402835291602001916105eb565b820191906000526020600020905b8154815290600101906020018083116105ce57829003601f168201915b5050505050905090565b60006003600083815260200190815260200160002060009054906101000a900473ffffffffffffffffffffffffffffffffffffffff169050919050565b600061063d82610aff565b90508073ffffffffffffffffffffffffffffffffffffffff168373ffffffffffffffffffffffffffffffffffffffff16141515156106b0576040517f08c379a00000000000000000000000000000000000000000000000000000000081526004016106a79061352a565b60405180910390fd5b8073ffffffffffffffffffffffffffffffffffffffff163373ffffffffffffffffffffffffffffffffffffffff1614806106f057506106ef81336112df565b5b1515610731576040517f08c379a00000000000000000000000000000000000000000000000000000000081526004016107289061350a565b60405180910390fd5b826003600084815260200190815260200160002060006101000a81548173ffffffffffffffffffffffffffffffffffffffff021916908373ffffffffffffffffffffffffffffffffffffffff160217905550818373ffffffffffffffffffffffffffffffffffffffff168273ffffffffffffffffffffffffffffffffffffffff167f8c5be1e5ebec7d5bd14f71427d1e84f3dd0314c0f7b2291e5b200ac8c7c3b92560405160405180910390a4505050565b6000600880549050905090565b6107fa3382611410565b151561083b576040517f08c379a00000000000000000000000000000000000000000000000000000000081526004016108329061340a565b60405180910390fd5b6108468383836114a5565b505050565b61088a828260006040519080825280601f01601f1916602001820160405280156108845781602001600182028038833980820191505090505b50610905565b5050565b600061089983610b3c565b821015156108a657600080fd5b600660008473ffffffffffffffffffffffffffffffffffffffff1673ffffffffffffffffffffffffffffffffffffffff168152602001908152602001600020828154811015156108f257fe5b9060005260206000200154905092915050565b505050565b3373ffffffffffffffffffffffffffffffffffffffff166000809054906101000a900473ffffffffffffffffffffffffffffffffffffffff1673ffffffffffffffffffffffffffffffffffffffff1614151561099b576040517f08c379a0000000000000000000000000000000000000000000000000000000008152600401610992906134aa565b60405180910390fd5b6109a36114c9565b60008060146101000a81548160ff0219169083151502179055507f5db9ee0a495bf2e6ff9c91a7834c1ba4fdd244a5e8aa4e537bd38aeae4b073aa336040516109ec9190613366565b60405180910390a1565b60003373ffffffffffffffffffffffffffffffffffffffff166000809054906101000a900473ffffffffffffffffffffffffffffffffffffffff1673ffffffffffffffffffffffffffffffffffffffff16141515610a89576040517f08c379a0000000000000000000000000000000000000000000000000000000008152600401610a80906134aa565b60405180910390fd5b610a93838361151c565b610a9c8261153d565b6001905092915050565b610ac28383836020604051908101604052806000815250610e7c565b505050565b6000610ad16107e3565b82101515610ade57600080fd5b600882815481101515610aed57fe5b90600052602060002001549050919050565b60006002600083815260200190815260200160002060009054906101000a900473ffffffffffffffffffffffffffffffffffffffff169050919050565b6000610b85600460008473ffffffffffffffffffffffffffffffffffffffff1673ffffffffffffffffffffffffffffffffffffffff16815260200190815260200160002061162d565b9050919050565b3373ffffffffffffffffffffffffffffffffffffffff166000809054906101000a900473ffffffffffffffffffffffffffffffffffffffff1673ffffffffffffffffffffffffffffffffffffffff16141515610c1d576040517f08c379a0000000000000000000000000000000000000000000000000000000008152600401610c14906134aa565b60405180910390fd5b610c2561163b565b6001600060146101000a81548160ff0219169083151502179055507f62e78cea01bee320cd4e420270b5ea74000d11b0c9f74754ebdbfc544b05a25833604051610c6f9190613366565b60405180910390a1565b60008060009054906101000a900473ffffffffffffffffffffffffffffffffffffffff16905090565b606060108054600181600116156101000203166002900480601f016020809104026020016040519081016040528092919081815260200182805460018160011615610100020316600290048015610d3a5780601f10610d0f57610100808354040283529160200191610d3a565b820191906000526020600020905b815481529060010190602001808311610d1d57829003601f168201915b5050505050905090565b3373ffffffffffffffffffffffffffffffffffffffff168273ffffffffffffffffffffffffffffffffffffffff1614151515610d7f57600080fd5b80600560003373ffffffffffffffffffffffffffffffffffffffff1673ffffffffffffffffffffffffffffffffffffffff16815260200190815260200160002060008473ffffffffffffffffffffffffffffffffffffffff1673ffffffffffffffffffffffffffffffffffffffff16815260200190815260200160002060006101000a81548160ff0219169083151502179055508173ffffffffffffffffffffffffffffffffffffffff163373ffffffffffffffffffffffffffffffffffffffff167f17307eab39ab6107e8899845ad3d59bd9653f200f220920489ca2b5937696c3183604051610e7091906133cd565b60405180910390a35050565b610e878484846107f0565b610e938484848461168f565b1515610e9e57600080fd5b50505050565b6060610eaf826117e0565b1515610eba57600080fd5b601260008381526020019081526020016000208054600181600116156101000203166002900480601f016020809104026020016040519081016040528092919081815260200182805460018160011615610100020316600290048015610f615780601f10610f3657610100808354040283529160200191610f61565b820191906000526020600020905b815481529060010190602001808311610f4457829003601f168201915b50505050509050919050565b606060118054600181600116156101000203166002900480601f0160208091040260200160405190810160405280929190818152602001828054600181600116156101000203166002900480156110055780601f10610fda57610100808354040283529160200191611005565b820191906000526020600020905b815481529060010190602001808311610fe857829003601f168201915b5050505050905090565b6000826000015160000151836000015160200151846020015160000151856020015160200151866040015160000151876040015160200151876040516020018088815260200187815260200186600260200280838360005b83811015611082578082015181840152602081019050611067565b5050505090500185600260200280838360005b838110156110b0578082015181840152602081019050611095565b5050505090500184815260200183815260200182600160200280838360005b838110156110ea5780820151818401526020810190506110cf565b50505050905001975050505050505050604051602081830303815290604052805190602001209050600073ffffffffffffffffffffffffffffffffffffffff166015600083815260200190815260200160002060010160009054906101000a900473ffffffffffffffffffffffffffffffffffffffff1673ffffffffffffffffffffffffffffffffffffffff161415156111b9576040517f08c379a00000000000000000000000000000000000000000000000000000000081526004016111b09061354a565b60405180910390fd5b601360009054906101000a900473ffffffffffffffffffffffffffffffffffffffff1673ffffffffffffffffffffffffffffffffffffffff1663f48d772984846040518363ffffffff167c010000000000000000000000000000000000000000000000000000000002815260040161123292919061356a565b60206040518083038186803b15801561124a57600080fd5b505afa15801561125e573d6000803e3d6000fd5b505050506040513d601f19601f820116820180604052506112829190810190612d72565b15156112c3576040517f08c379a00000000000000000000000000000000000000000000000000000000081526004016112ba9061346a565b60405180910390fd5b6112cd8186611852565b6112d785856109f6565b505050505050565b6000600560008473ffffffffffffffffffffffffffffffffffffffff1673ffffffffffffffffffffffffffffffffffffffff16815260200190815260200160002060008373ffffffffffffffffffffffffffffffffffffffff1673ffffffffffffffffffffffffffffffffffffffff16815260200190815260200160002060009054906101000a900460ff16905092915050565b3373ffffffffffffffffffffffffffffffffffffffff166000809054906101000a900473ffffffffffffffffffffffffffffffffffffffff1673ffffffffffffffffffffffffffffffffffffffff16141515611404576040517f08c379a00000000000000000000000000000000000000000000000000000000081526004016113fb906134aa565b60405180910390fd5b61140d81611941565b50565b60008061141c83610aff565b90508073ffffffffffffffffffffffffffffffffffffffff168473ffffffffffffffffffffffffffffffffffffffff16148061148b57508373ffffffffffffffffffffffffffffffffffffffff16611473846105f5565b73ffffffffffffffffffffffffffffffffffffffff16145b8061149c575061149b81856112df565b5b91505092915050565b6114b0838383611a3b565b6114ba8382611c74565b6114c48282611e18565b505050565b600060149054906101000a900460ff16151561151a576040517f08c379a00000000000000000000000000000000000000000000000000000000081526004016115119061342a565b60405180910390fd5b565b6115268282611edf565b6115308282611e18565b61153981612022565b5050565b611546816117e0565b151561155157600080fd5b60606115ff60118054600181600116156101000203166002900480601f0160208091040260200160405190810160405280929190818152602001828054600181600116156101000203166002900480156115ec5780601f106115c1576101008083540402835291602001916115ec565b820191906000526020600020905b8154815290600101906020018083116115cf57829003601f168201915b50505050506115fa8461206e565b6121c7565b905080601260008481526020019081526020016000209080519060200190611628929190612778565b505050565b600081600001549050919050565b600060149054906101000a900460ff1615151561168d576040517f08c379a0000000000000000000000000000000000000000000000000000000008152600401611684906134ca565b60405180910390fd5b565b60006116b08473ffffffffffffffffffffffffffffffffffffffff1661220e565b15156116bf57600190506117d8565b60008473ffffffffffffffffffffffffffffffffffffffff1663150b7a02338887876040518563ffffffff167c010000000000000000000000000000000000000000000000000000000002815260040161171c9493929190613381565b602060405180830381600087803b15801561173657600080fd5b505af115801561174a573d6000803e3d6000fd5b505050506040513d601f19601f8201168201806040525061176e9190810190612e97565b905063150b7a027c0100000000000000000000000000000000000000000000000000000000027bffffffffffffffffffffffffffffffffffffffffffffffffffffffff1916817bffffffffffffffffffffffffffffffffffffffffffffffffffffffff1916149150505b949350505050565b6000806002600084815260200190815260200160002060009054906101000a900473ffffffffffffffffffffffffffffffffffffffff169050600073ffffffffffffffffffffffffffffffffffffffff168173ffffffffffffffffffffffffffffffffffffffff161415915050919050565b611868600160145461222190919063ffffffff16565b601481905550604080519081016040528060145481526020018273ffffffffffffffffffffffffffffffffffffffff16815250601560008481526020019081526020016000206000820151816000015560208201518160010160006101000a81548173ffffffffffffffffffffffffffffffffffffffff021916908373ffffffffffffffffffffffffffffffffffffffff1602179055509050507f3df6b522eef67da754a6005553d519aa545c4394f4f8a0d60cb4312a14133e52601454826040516119359291906135b0565b60405180910390a15050565b600073ffffffffffffffffffffffffffffffffffffffff168173ffffffffffffffffffffffffffffffffffffffff161415151561197d57600080fd5b8073ffffffffffffffffffffffffffffffffffffffff166000809054906101000a900473ffffffffffffffffffffffffffffffffffffffff1673ffffffffffffffffffffffffffffffffffffffff167f5c486528ec3e3f0ea91181cff8116f02bfa350e03b8b6f12e00765adbb5af85c60405160405180910390a3806000806101000a81548173ffffffffffffffffffffffffffffffffffffffff021916908373ffffffffffffffffffffffffffffffffffffffff16021790555050565b6000611a4682610aff565b90508073ffffffffffffffffffffffffffffffffffffffff168473ffffffffffffffffffffffffffffffffffffffff16141515611ab8576040517f08c379a0000000000000000000000000000000000000000000000000000000008152600401611aaf9061344a565b60405180910390fd5b600073ffffffffffffffffffffffffffffffffffffffff168373ffffffffffffffffffffffffffffffffffffffff1614151515611b2a576040517f08c379a0000000000000000000000000000000000000000000000000000000008152600401611b21906134ea565b60405180910390fd5b611b3382612242565b611b7a600460008673ffffffffffffffffffffffffffffffffffffffff1673ffffffffffffffffffffffffffffffffffffffff168152602001908152602001600020612302565b826002600084815260200190815260200160002060006101000a81548173ffffffffffffffffffffffffffffffffffffffff021916908373ffffffffffffffffffffffffffffffffffffffff160217905550611c13600460008573ffffffffffffffffffffffffffffffffffffffff1673ffffffffffffffffffffffffffffffffffffffff168152602001908152602001600020612325565b818373ffffffffffffffffffffffffffffffffffffffff168573ffffffffffffffffffffffffffffffffffffffff167fddf252ad1be2c89b69c2b068fc378daa952ba7f163c4a11628f55a4df523b3ef60405160405180910390a450505050565b6000611ccc6001600660008673ffffffffffffffffffffffffffffffffffffffff1673ffffffffffffffffffffffffffffffffffffffff1681526020019081526020016000208054905061233b90919063ffffffff16565b90506000600760008481526020019081526020016000205490508181141515611dbf576000600660008673ffffffffffffffffffffffffffffffffffffffff1673ffffffffffffffffffffffffffffffffffffffff16815260200190815260200160002083815481101515611d3d57fe5b9060005260206000200154905080600660008773ffffffffffffffffffffffffffffffffffffffff1673ffffffffffffffffffffffffffffffffffffffff16815260200190815260200160002083815481101515611d9757fe5b9060005260206000200181905550816007600083815260200190815260200160002081905550505b600660008573ffffffffffffffffffffffffffffffffffffffff1673ffffffffffffffffffffffffffffffffffffffff168152602001908152602001600020805480919060019003611e1191906127f8565b5050505050565b600660008373ffffffffffffffffffffffffffffffffffffffff1673ffffffffffffffffffffffffffffffffffffffff168152602001908152602001600020805490506007600083815260200190815260200160002081905550600660008373ffffffffffffffffffffffffffffffffffffffff1673ffffffffffffffffffffffffffffffffffffffff1681526020019081526020016000208190806001815401808255809150509060018203906000526020600020016000909192909190915055505050565b611ee8816117e0565b151515611f2a576040517f08c379a0000000000000000000000000000000000000000000000000000000008152600401611f219061348a565b60405180910390fd5b816002600083815260200190815260200160002060006101000a81548173ffffffffffffffffffffffffffffffffffffffff021916908373ffffffffffffffffffffffffffffffffffffffff160217905550611fc3600460008473ffffffffffffffffffffffffffffffffffffffff1673ffffffffffffffffffffffffffffffffffffffff168152602001908152602001600020612325565b808273ffffffffffffffffffffffffffffffffffffffff168373ffffffffffffffffffffffffffffffffffffffff167fddf252ad1be2c89b69c2b068fc378daa952ba7f163c4a11628f55a4df523b3ef60405160405180910390a45050565b6008805490506009600083815260200190815260200160002081905550600881908060018154018082558091505090600182039060005260206000200160009091929091909150555050565b606060008214156120b6576040805190810160405280600181526020017f300000000000000000000000000000000000000000000000000000000000000081525090506121c2565b600082905060005b6000821415156120e4578080600101915050600a828115156120dc57fe5b0491506120be565b6060816040519080825280601f01601f1916602001820160405280156121195781602001600182028038833980820191505090505b50905060006001830390505b6000861415156121ba57600a8681151561213b57fe5b066030017f01000000000000000000000000000000000000000000000000000000000000000282828060019003935081518110151561217657fe5b9060200101907effffffffffffffffffffffffffffffffffffffffffffffffffffffffffffff1916908160001a905350600a868115156121b257fe5b049550612125565b819450505050505b919050565b6060612206838360206040519081016040528060008152506020604051908101604052806000815250602060405190810160405280600081525061235d565b905092915050565b600080823b905060008111915050919050565b600080828401905083811015151561223857600080fd5b8091505092915050565b600073ffffffffffffffffffffffffffffffffffffffff166003600083815260200190815260200160002060009054906101000a900473ffffffffffffffffffffffffffffffffffffffff1673ffffffffffffffffffffffffffffffffffffffff161415156122ff5760006003600083815260200190815260200160002060006101000a81548173ffffffffffffffffffffffffffffffffffffffff021916908373ffffffffffffffffffffffffffffffffffffffff1602179055505b50565b61231a6001826000015461233b90919063ffffffff16565b816000018190555050565b6001816000016000828254019250508190555050565b600082821115151561234c57600080fd5b600082840390508091505092915050565b6060808690506060869050606086905060608690506060869050606081518351855187518951010101016040519080825280601f01601f1916602001820160405280156123b95781602001600182028038833980820191505090505b509050606081905060008090506000809050600090505b88518110156124835788818151811015156123e757fe5b9060200101517f010000000000000000000000000000000000000000000000000000000000000090047f010000000000000000000000000000000000000000000000000000000000000002838380600101945081518110151561244657fe5b9060200101907effffffffffffffffffffffffffffffffffffffffffffffffffffffffffffff1916908160001a90535080806001019150506123d0565b600090505b875181101561253b57878181518110151561249f57fe5b9060200101517f010000000000000000000000000000000000000000000000000000000000000090047f01000000000000000000000000000000000000000000000000000000000000000283838060010194508151811015156124fe57fe5b9060200101907effffffffffffffffffffffffffffffffffffffffffffffffffffffffffffff1916908160001a9053508080600101915050612488565b600090505b86518110156125f357868181518110151561255757fe5b9060200101517f010000000000000000000000000000000000000000000000000000000000000090047f01000000000000000000000000000000000000000000000000000000000000000283838060010194508151811015156125b657fe5b9060200101907effffffffffffffffffffffffffffffffffffffffffffffffffffffffffffff1916908160001a9053508080600101915050612540565b600090505b85518110156126ab57858181518110151561260f57fe5b9060200101517f010000000000000000000000000000000000000000000000000000000000000090047f010000000000000000000000000000000000000000000000000000000000000002838380600101945081518110151561266e57fe5b9060200101907effffffffffffffffffffffffffffffffffffffffffffffffffffffffffffff1916908160001a90535080806001019150506125f8565b600090505b84518110156127635784818151811015156126c757fe5b9060200101517f010000000000000000000000000000000000000000000000000000000000000090047f010000000000000000000000000000000000000000000000000000000000000002838380600101945081518110151561272657fe5b9060200101907effffffffffffffffffffffffffffffffffffffffffffffffffffffffffffff1916908160001a90535080806001019150506126b0565b82995050505050505050505095945050505050565b828054600181600116156101000203166002900490600052602060002090601f016020900481019282601f106127b957805160ff19168380011785556127e7565b828001600101855582156127e7579182015b828111156127e65782518255916020019190600101906127cb565b5b5090506127f49190612824565b5090565b81548183558181111561281f5781836000526020600020918201910161281e9190612824565b5b505050565b61284691905b8082111561284257600081600090555060010161282a565b5090565b90565b60006128558235613744565b905092915050565b600082601f830112151561287057600080fd5b600161288361287e82613606565b6135d9565b9150818385602084028201111561289957600080fd5b60005b838110156128c957816128af8882612b52565b84526020840193506020830192505060018101905061289c565b5050505092915050565b600082601f83011215156128e657600080fd5b60026128f96128f482613628565b6135d9565b9150818385602084028201111561290f57600080fd5b60005b8381101561293f57816129258882612b52565b845260208401935060208301925050600181019050612912565b5050505092915050565b60006129558235613756565b905092915050565b60006129698251613756565b905092915050565b600061297d8235613762565b905092915050565b6000612991823561376c565b905092915050565b60006129a5825161376c565b905092915050565b600082601f83011215156129c057600080fd5b81356129d36129ce8261364a565b6135d9565b915080825260208301602083018583830111156129ef57600080fd5b6129fa8382846137d8565b50505092915050565b600082601f8301121515612a1657600080fd5b8135612a29612a2482613676565b6135d9565b91508082526020830160208301858383011115612a4557600080fd5b612a508382846137d8565b50505092915050565b600060408284031215612a6b57600080fd5b612a7560406135d9565b90506000612a8584828501612b52565b6000830152506020612a9984828501612b52565b60208301525092915050565b600060808284031215612ab757600080fd5b612ac160406135d9565b90506000612ad1848285016128d3565b6000830152506040612ae5848285016128d3565b60208301525092915050565b60006101008284031215612b0457600080fd5b612b0e60606135d9565b90506000612b1e84828501612a59565b6000830152506040612b3284828501612aa5565b60208301525060c0612b4684828501612a59565b60408301525092915050565b6000612b5e8235613798565b905092915050565b600060208284031215612b7857600080fd5b6000612b8684828501612849565b91505092915050565b60008060408385031215612ba257600080fd5b6000612bb085828601612849565b9250506020612bc185828601612849565b9150509250929050565b600080600060608486031215612be057600080fd5b6000612bee86828701612849565b9350506020612bff86828701612849565b9250506040612c1086828701612b52565b9150509250925092565b60008060008060808587031215612c3057600080fd5b6000612c3e87828801612849565b9450506020612c4f87828801612849565b9350506040612c6087828801612b52565b925050606085013567ffffffffffffffff811115612c7d57600080fd5b612c89878288016129ad565b91505092959194509250565b60008060408385031215612ca857600080fd5b6000612cb685828601612849565b9250506020612cc785828601612949565b9150509250929050565b60008060408385031215612ce457600080fd5b6000612cf285828601612849565b9250506020612d0385828601612b52565b9150509250929050565b6000806000806101608587031215612d2457600080fd5b6000612d3287828801612849565b9450506020612d4387828801612b52565b9350506040612d5487828801612af1565b925050610140612d668782880161285d565b91505092959194509250565b600060208284031215612d8457600080fd5b6000612d928482850161295d565b91505092915050565b60008060408385031215612dae57600080fd5b6000612dbc85828601612971565b925050602083013567ffffffffffffffff811115612dd957600080fd5b612de585828601612a03565b9150509250929050565b600080600060608486031215612e0457600080fd5b6000612e1286828701612971565b935050602084013567ffffffffffffffff811115612e2f57600080fd5b612e3b86828701612a03565b925050604084013567ffffffffffffffff811115612e5857600080fd5b612e64868287016129ad565b9150509250925092565b600060208284031215612e8057600080fd5b6000612e8e84828501612985565b91505092915050565b600060208284031215612ea957600080fd5b6000612eb784828501612999565b91505092915050565b600060208284031215612ed257600080fd5b6000612ee084828501612b52565b91505092915050565b612ef2816137a2565b82525050565b612f01816136fc565b82525050565b612f10816136b6565b612f19826136a2565b60005b82811015612f4b57612f2f85835161333c565b612f38826136e2565b9150602085019450600181019050612f1c565b5050505050565b612f5b816136c1565b612f64826136ac565b60005b82811015612f9657612f7a85835161333c565b612f83826136ef565b9150602085019450600181019050612f67565b5050505050565b612fa68161370e565b82525050565b6000612fb7826136cc565b808452612fcb8160208601602086016137e7565b612fd48161381a565b602085010191505092915050565b6000612fed826136d7565b8084526130018160208601602086016137e7565b61300a8161381a565b602085010191505092915050565b6000601282527f4e6f7420617070726f766564206f776e657200000000000000000000000000006020830152604082019050919050565b6000601482527f5061757361626c653a206e6f74207061757365640000000000000000000000006020830152604082019050919050565b6000601482527f66726f6d2073686f756c64206265206f776e65720000000000000000000000006020830152604082019050919050565b6000600a82527f6e6f742070726f766564000000000000000000000000000000000000000000006020830152604082019050919050565b6000600e82527f416c7265616479206578697374730000000000000000000000000000000000006020830152604082019050919050565b6000601582527f4f6e6c79206f776e657220697320616c6c6f77656400000000000000000000006020830152604082019050919050565b6000601082527f5061757361626c653a20706175736564000000000000000000000000000000006020830152604082019050919050565b6000601182527f6e6f742076616c696420616464726573730000000000000000000000000000006020830152604082019050919050565b6000601582527f73656e646572206e6f7420617574686f72697a656400000000000000000000006020830152604082019050919050565b6000602682527f6164647265737320657175616c7320746f20746865206f776e6572206f66207460208301527f6f6b656e494400000000000000000000000000000000000000000000000000006040830152606082019050919050565b6000600c82527f616c7265616479207573656400000000000000000000000000000000000000006020830152604082019050919050565b6040820160008201516132b1600085018261333c565b5060208201516132c4602085018261333c565b50505050565b6080820160008201516132e06000850182612f52565b5060208201516132f36040850182612f52565b50505050565b61010082016000820151613310600085018261329b565b50602082015161332360408501826132ca565b50604082015161333660c085018261329b565b50505050565b6133458161373a565b82525050565b60006020820190506133606000830184612ef8565b92915050565b600060208201905061337b6000830184612ee9565b92915050565b60006080820190506133966000830187612ee9565b6133a36020830186612ef8565b6133b0604083018561333c565b81810360608301526133c28184612fac565b905095945050505050565b60006020820190506133e26000830184612f9d565b92915050565b600060208201905081810360008301526134028184612fe2565b905092915050565b6000602082019050818103600083015261342381613018565b9050919050565b600060208201905081810360008301526134438161304f565b9050919050565b6000602082019050818103600083015261346381613086565b9050919050565b60006020820190508181036000830152613483816130bd565b9050919050565b600060208201905081810360008301526134a3816130f4565b9050919050565b600060208201905081810360008301526134c38161312b565b9050919050565b600060208201905081810360008301526134e381613162565b9050919050565b6000602082019050818103600083015261350381613199565b9050919050565b60006020820190508181036000830152613523816131d0565b9050919050565b6000602082019050818103600083015261354381613207565b9050919050565b6000602082019050818103600083015261356381613264565b9050919050565b60006101208201905061358060008301856132f9565b61358e610100830184612f07565b9392505050565b60006020820190506135aa600083018461333c565b92915050565b60006040820190506135c5600083018561333c565b6135d26020830184612ef8565b9392505050565b6000604051905081810181811067ffffffffffffffff821117156135fc57600080fd5b8060405250919050565b600067ffffffffffffffff82111561361d57600080fd5b602082029050919050565b600067ffffffffffffffff82111561363f57600080fd5b602082029050919050565b600067ffffffffffffffff82111561366157600080fd5b601f19601f8301169050602081019050919050565b600067ffffffffffffffff82111561368d57600080fd5b601f19601f8301169050602081019050919050565b6000819050919050565b6000819050919050565b600060019050919050565b600060029050919050565b600081519050919050565b600081519050919050565b6000602082019050919050565b6000602082019050919050565b60006137078261371a565b9050919050565b60008115159050919050565b600073ffffffffffffffffffffffffffffffffffffffff82169050919050565b6000819050919050565b600061374f8261371a565b9050919050565b60008115159050919050565b6000819050919050565b60007fffffffff0000000000000000000000000000000000000000000000000000000082169050919050565b6000819050919050565b60006137ad826137b4565b9050919050565b60006137bf826137c6565b9050919050565b60006137d18261371a565b9050919050565b82818337600083830152505050565b60005b838110156138055780820151818401526020810190506137ea565b83811115613814576000848401525b50505050565b6000601f19601f830116905091905056fea265627a7a72305820c6134ab97f98881457bfee5b68006f6568870e66c66926dea94ea660160afb396c6578706572696d656e74616cf5003768747470733a2f2f73332d75732d776573742d322e616d617a6f6e6177732e636f6d2f756461636974792d626c6f636b636861696e2f63617073746f6e652f",
  "source": "pragma solidity >=0.4.21 <0.6.0;\npragma experimental ABIEncoderV2;\n\nimport \"./ERC721Mintable.sol\";\nimport \"./Verifier.sol\";\n\n// TODO define another contract named SolnSquareVerifier that inherits from your ERC721Mintable class\n\ncontract SolnSquareVerifier is CustomERC721Token {\n// TODO define a contract call to the zokrates generated solidity contract <Verifier> or <renamedVerifier>\n    Verifier private squareVerifier;\n\n// TODO define a solutions struct that can hold an index & an address\n    struct Solution {\n        uint256 index;\n        address ad;\n    }\n\n    uint256 private solutionIndex = 0;\n\n// TODO define an array of the above struct\n// TODO define a mapping to store unique solutions submitted\n    mapping(bytes32 => Solution) private solutions;\n\n// TODO Create an event to emit when a solution is added\n    event Solve(uint256 index, address ad);\n\n    constructor (address verifierAddress) public {\n        squareVerifier = Verifier(verifierAddress);\n    }\n\n// TODO Create a function to add the solutions to the array and emit the event\n    function addSolution(bytes32 key, address to) internal {\n        solutionIndex = solutionIndex.add(1);\n        solutions[key] = Solution(solutionIndex, to);\n        emit Solve(solutionIndex, to);\n    }\n\n// TODO Create a function to mint new NFT only after the solution has been verified\n//  - make sure the solution is unique (has not been used before)\n//  - make sure you handle metadata as well as tokenSuplly\n    function mintNewNFT(address to, uint256 tokenId, Verifier.Proof memory proof, uint[1] memory input) public{\n        bytes32 key = keccak256(abi.encodePacked(proof.a.X, proof.a.Y, proof.b.X, proof.b.Y, proof.c.X, proof.c.Y, input));\n        require(solutions[key].ad == address(0), \"already used\");\n        require(squareVerifier.verifyTx(proof, input), \"not proved\");\n        addSolution(key, to);(key, to);\n        super.mint(to, tokenId);\n    }\n  \n}\n\n// contract Verifier {\n//     // using Pairing for *;\n//     // struct Proof {\n//     //     Pairing.G1Point a;\n//     //     Pairing.G2Point b;\n//     //     Pairing.G1Point c;\n//     // }\n//     function verifyTx(Proof memory proof, uint[1] memory input) public view returns (bool r);\n// }\n\n\n\n\n\n\n\n\n\n\n\n\n\n\n\n\n\n\n\n\n\n\n\n",
  "sourcePath": "/Users/ayakowatanabe/Documents//blockchain-udacity/Blockchain-Capstone/eth-contracts/contracts/SolnSquareVerifier.sol",
  "compiler": {
    "name": "solc",
    "version": "0.5.2+commit.1df8f40c.Emscripten.clang"
  },
  "schemaVersion": "3.0.1",
  "updatedAt": "2022-08-26T16:38:34.203Z",
  "devdoc": {
    "methods": {
      "isApprovedForAll(address,address)": {
        "details": "Tells whether an operator is approved by a given owner",
        "params": {
          "operator": "operator address which you want to query the approval of",
          "owner": "owner address which you want to query the approval of"
        },
        "return": "bool whether the given operator is approved by the given owner"
      },
      "setApprovalForAll(address,bool)": {
        "details": "Sets or unsets the approval of a given operator An operator is allowed to transfer all tokens of the sender on their behalf",
        "params": {
          "approved": "representing the status of the approval to be set",
          "to": "operator address to set the approval"
        }
      },
      "supportsInterface(bytes4)": {
        "details": "implement supportsInterface(bytes4) using a lookup table"
      },
      "tokenByIndex(uint256)": {
        "details": "Gets the token ID at a given index of all the tokens in this contract Reverts if the index is greater or equal to the total number of tokens",
        "params": {
          "index": "uint256 representing the index to be accessed of the tokens list"
        },
        "return": "uint256 token ID at the given index of the tokens list"
      },
      "tokenOfOwnerByIndex(address,uint256)": {
        "details": "Gets the token ID at a given index of the tokens list of the requested owner",
        "params": {
          "index": "uint256 representing the index to be accessed of the requested tokens list",
          "owner": "address owning the tokens list to be accessed"
        },
        "return": "uint256 token ID at the given index of the tokens list owned by the requested address"
      },
      "totalSupply()": {
        "details": "Gets the total amount of tokens stored by the contract",
        "return": "uint256 representing the total amount of tokens"
      }
    }
  },
  "userdoc": {
    "methods": {}
  }
}